:020000040800F2
:1000000078060020890100089B0D0008410B0008BC
:10001000990D00082B030008F70D000800000000F0
:100020000000000000000000000000009F0D00081C
:100030002D030008000000009D0D0008A10D000820
:10004000A3010008A3010008A3010008A301000800
:10005000A3010008A3010008A3010008A3010008F0
:10006000A3010008A3010008A3010008A3010008E0
:10007000A3010008A3010008A3010008A3010008D0
:10008000A3010008A3010008A3010008A3010008C0
:10009000A3010008A3010008A3010008A3010008B0
:1000A000A3010008A3010008A3010008A3010008A0
:1000B000A3010008A3010008A3010008A301000890
:1000C000A3010008A3010008A3010008A301000880
:1000D000A3010008A3010008A3010008A301000870
:1000E000A3010008A3010008A301000800F002F822
:1000F00000F03AF80AA090E8000C82448344AAF188
:100100000107DA4501D100F02FF8AFF2090EBAE885
:100110000F0013F0010F18BFFB1A43F0010318473B
:10012000A00D0000C00D0000103A24BF78C878C1AF
:10013000FAD8520724BF30C830C144BF04680C60ED
:10014000704700000023002400250026103A28BF35
:1001500078C1FBD8520728BF30C148BF0B60704739
:100160001FB51FBD10B510BD00F092F81146FFF786
:10017000F7FF00F059FE00F0C4F803B4FFF7F2FFF8
:1001800003BC00F0CBF8000009488047094800474D
:10019000FEE7FEE7FEE7FEE7FEE7FEE7FEE7FEE737
:1001A000FEE7FEE704480549054A064B7047000094
:1001B000F50D0008ED00000878000020780600200A
:1001C00078020020780200200FB4044910B503AA79
:1001D000029800F02FF810BC5DF814FB000000201E
:1001E0004FF0000200B5134694469646203922BFD0
:1001F000A0E80C50A0E80C50B1F12001BFF4F7AF1B
:10020000090728BFA0E80C5048BF0CC05DF804EBFC
:10021000890028BF40F8042B08BF704748BF20F86A
:10022000022B11F0804F18BF00F8012B7047704768
:1002300070477047074B70B50D467B4400F011F8CE
:100240000446284600F020F810B14FF0FF3070BD92
:10025000204670BDDB0B000001694A1C0261087872
:10026000704700B58FB0CDE90131002105910549F6
:100270007944CDE903101146684600F02EF80FB01E
:1002800000BD0000E5FFFFFF007B00F0800070472D
:10029000754600F03FF8AE4605006946534620F02B
:1002A0000700854618B020B5FFF77CFFBDE8204069
:1002B0004FF000064FF000074FF000084FF0000B22
:1002C00021F00701AC46ACE8C009ACE8C009ACE8D5
:1002D000C009ACE8C0098D4670472DE9F0410646DB
:1002E0000024D6E90170F5688046304603E04146B7
:1002F000B847641C3046A8470028F8D12046BDE81E
:10030000F08110B50446AFF300802046BDE81040F0
:10031000FFF733BF00487047140000200149182040
:10032000ABBEFEE7260002007047FEE77047000004
:1003300070B5044600F004F90546601C02D004487C
:100340000078044400F0FCF8401BA042FAD370BDD2
:10035000040000202DE9F84FDFF8B891002409F1DE
:10036000040A0AF1040B23460F270BF1040EC9E01F
:100370000125A5402A40AA427DD1674ED1F804C08C
:10038000ACEB0608B44532D014DCBCF1030F3AD014
:1003900009DCBCF1000F2AD0BCF1010F1CD0BCF16C
:1003A000020F31D11DE0BCF1110F17D0BCF1120FBB
:1003B0002AD119E0B8F5881F19D006DCB8F5803FBE
:1003C00015D0B8F5801F1FD111E0B8F5001F0ED071
:1003D000B8F5041F18D10AE0CB6815E0CB681B1DE7
:1003E00012E0CB6808330FE0CB680C330CE08B686D
:1003F0002BB1012B4FF0080303D0456104E0042327
:1004000002E0056100E00023FF2A01D8064601E072
:1004100000F104064FEA840501D9A5F12005D6F8BC
:10042000008007FA05FC28EA0C0803FA05F548EAFB
:100430000508C6F800804D68ED0062D5374DAE69FD
:1004400046F00106AE61AD6924F0030605F0010532
:100450000095334D06EB050CDCF80850A607360F67
:1004600007FA06F825EA0805DFF8B880404503D109
:100470004FF0000817E044E0DFF8AC80404502D1BF
:100480004FF001080FE0DFF8A480404502D14FF0A3
:10049000020808E0DFF89880404502D14FF00308D9
:1004A00001E04FF0040808FA06F848EA0508CCF81D
:1004B00008804D68D9F80060ED034D4601D516431C
:1004C00000E096432E604D68DAF80060AD035546B3
:1004D00001D5164300E096432E604D68DBF80060BE
:1004E000ED025D4601D5164300E096432E604D684F
:1004F000DEF80060AD02754601D5164300E0964374
:100500002E60641C0D682A46E5407FF431AFBDE8DB
:10051000F88F00000004014000001110001002409C
:100520000000014000080140000C014000100140A3
:10053000001401400AB1016170470904FBE70000A3
:10054000014880687047000004000020024881686C
:10055000027811448160704704000020074810B5FC
:10056000016841F010010160032000F067F80F20DE
:1005700000F006F800F024F8002010BD0020024032
:1005800070B50D4D04464FF47A712878B1FBF0F048
:100590000A490968B1FBF0F000F0BEFA48B9102C26
:1005A00007D200222146501E00F028F800206C607F
:1005B00070BD012070BD000004000020100000206C
:1005C0000C4808B5816941F001018161816901F040
:1005D00001010091C16941F08051C161C06900F021
:1005E000805000900448416821F0E06141F00071C2
:1005F000416008BD0010024000000140F0B40E4B05
:100600001B680C46C3F30223C3F10705042D00D970
:100610000425191D072901D2002300E0DB1E012655
:1006200006FA05F1491E214099409E40761E16406B
:100630003143F0BC00F0E0BB0CED00E0064900F0F7
:10064000070208684FF6FF03184040EA0220034AF9
:1006500010430860704700000CED00E00000FA0550
:100660002DE9F0470F46050061D0434E306800F099
:100670000700B84209D2306820F0070038433060E4
:10068000306800F00700B84251D128683B4C810720
:1006900012D5400703D5606840F4E06060602878B8
:1006A000000703D5606840F4605060606068A96826
:1006B00020F0F000084360602878C00728D0686800
:1006C000012810D02168022810D0890700292EDACD
:1006D000616821F0030101436160FFF731FF80464B
:1006E00041F288390DE021688903EFE78901EDE7E0
:1006F000FFF726FFA0EB0801494502D90320BDE81A
:10070000F0876068696800F00C00B0EB810FEFD1F2
:10071000306800F00700B8420BD9306820F00700BD
:1007200038433060306800F00700B84201D0012043
:10073000E5E72878400705D56068E96820F4E060BF
:10074000084360602878000706D56068296920F4AE
:10075000605040EAC100606000F018F86168084A23
:10076000C1F30311515CC84006490860064800689F
:10077000FFF706FF0020C2E7002002400010024001
:10078000B00E0008100000200800002012A185B063
:100790000FC98DE80F0014A0144A00680490516836
:1007A000134801F00C03042B10D0082B0ED1C1F319
:1007B0008343C9031DF803000AD5516804AAC1F395
:1007C0004041515C0A4A5043B0FBF1F005B070471C
:1007D00008494843FAE70000020304050607080930
:1007E0000A0B0C0D0E0F1010010200000010024049
:1007F00000127A0000093D002DE9F84F040070D086
:100800002078C04DC00749D06868C0F38100012836
:1008100007D06868C0F38100022809D16868C00366
:1008200006D52868800339D560680028E7D035E010
:100830006068B0F5803F0BD010B1B0F5A02F11D09B
:10084000286820F480302860286820F4802002E0A6
:10085000286840F480302860606890B1FFF770FE2F
:1008600006460AE0286840F480202860F0E700BFD0
:10087000FFF766FE801B642873D828688003F7D5CD
:100880000CE0FFF75DFE064605E000BFFFF758FEEF
:10089000801B6428F0D828688003F7D420789A4E0B
:1008A00080074FF001094FF0000839D5686810F053
:1008B0000C0F07D06868C0F38100022809D168686E
:1008C000C00306D42868800714D52069012808D100
:1008D00010E02069B0B1C6F80090FFF731FE07467E
:1008E00005E00AE1FFF72CFEC01B0228C4D82868E7
:1008F0008007F7D52868616920F0F80040EAC10058
:1009000028600DE0C6F80080FFF71AFE074604E0F5
:10091000FFF716FEC01B022823D828688007F7D4EB
:10092000207800072CD57948A169D9B1C0F800908A
:10093000FFF706FE074604E0FFF702FEC01B022891
:100940000FD8686A8007F7D571484FF4FA510068EC
:10095000B0FBF1F0009000BF0098411E0091FAD268
:100960000EE080E0C0F80080FFF7EAFD074604E0F3
:10097000FFF7E6FDC01B022875D8686A8007F7D428
:100980002078400760D5E8690027C00008D4E869EE
:1009900040F08050E861E869012700F08050009045
:1009A0005C480168C90513D40168834641F480712D
:1009B0000160FFF7C5FD824606E000BFFFF7C0FDFE
:1009C000A0EB0A0064284ED8DBF80000C005F5D57E
:1009D000E06801280AD008B1052813D0286A20F061
:1009E00001002862286A20F0040002E0286A40F032
:1009F00001002862E06841F2883B98B1FFF7A0FD52
:100A000082460BE0286A40F004002862EEE700BF4F
:100A1000FFF796FDA0EB0A0159455AD8286A8007CE
:100A2000F6D50CE0FFF78CFD824605E0FFF788FD68
:100A3000A0EB0A0159454CD8286A8007F6D41FB1AB
:100A4000E86920F08050E861E06988B36968C1F323
:100A50008101022944D00228C6F8608004D0FFF743
:100A60006FFD044638E034E0FFF76AFD074604E016
:100A7000FFF766FDC01B02282BD828688001F7D439
:100A8000206AB0F5803F05D16868A16820F4003085
:100A900008436860D4E908010843696821F47411C7
:100AA00008436860C6F86090FFF74AFD044606E018
:100AB00025E000BFFFF744FD001B022809D8286885
:100AC0008001F7D51BE000BFFFF73AFD001B0228AD
:100AD00002D90320BDE8F88F28688001F4D40EE025
:100AE0000128F7D06868226A00F48031914204D16D
:100AF000616A00F47010884201D00120EAE700200A
:100B0000E8E7000000100240000042428004424238
:100B1000100000200070004010B5401EB0F1807F32
:100B200001D3012010BD4FF0E02460610F21601758
:100B300000F062F90020A06107202061002010BDB4
:100B4000FEE700EB81108030C0B200F095B80000E5
:100B500010B50F20FFF7ECFB00224FF48071164810
:100B6000FFF7E8FC302000F049F80520FFF7E0FB34
:100B7000302000F043F80120FFF7DAFB302000F0CE
:100B80003DF80120FFF7D4FB202000F037F80120CA
:100B9000FFF7CEFB282000F024F8082000F021F811
:100BA000012000F01EF8062000F01BF8BDE8104000
:100BB0000D2000F016B80000000C014070B50D4685
:100BC0000646002409E00A2802D000F047F802E0B7
:100BD000C02000F051F8641CE4B2305DA842F2D1AC
:100BE00070BD10B5044600F009F82007000E00F0B3
:100BF00005F8BDE810400120FFF79ABB70B5164D0F
:100C0000044600224FF400712846FFF793FC04F0DD
:100C1000800280212846FFF78DFC04F0400240212D
:100C20002846FFF787FC04F0200220212846FFF722
:100C300081FC04F0100210212846FFF77BFC012202
:100C4000940221462846FFF775FC21462846BDE858
:100C500070400022FFF76EBC000C014010B5044646
:100C6000012211020348FFF765FC2046BDE8104051
:100C7000FFF7B7BF000C014010B5044600224FF447
:100C800080710448FFF756FC2046BDE81040FFF78E
:100C9000A8BF0000000C014070B50D4606460024B8
:100CA00004EBC5004030C0B2FFF7E6FF305DFFF750
:100CB000D5FF641CE4B2082CF2D370BDF0B585B04A
:100CC00000252F480095019502950395816941F013
:100CD00010018161816901F010010491816941F085
:100CE00020018161816901F020010491816941F055
:100CF00004018161816901F004010491816941F07D
:100D00000801816180691F4F00F0080040F2FF7602
:100D10000490002231463846FFF70CFC4FF4604047
:100D20000324CDE9000469461748FFF713FB00943C
:100D3000694616480194FFF70DFB49F6FF70CDE9AF
:100D4000000469461248FFF705FB01200096CDE933
:100D500001050220039069463846FFF7FBFA4FF47D
:100D60007840CDE9000469463846FFF7F3FA0948B0
:100D7000416841F0E06141F40041416005B0F0BDDF
:100D800000100240000C014000100140001401401E
:100D90000008014000000140FEE7FEE77047704791
:100DA000FFF7D4BB10B590B028216846FFF718FABA
:100DB00014210AA8FFF714FA0220009001200490E1
:100DC00010200024059007946846FFF715FD08B130
:100DD00072B6FEE70F20CDE90A040C940D940021B1
:100DE0000AA80E94FFF73CFC002801D072B6FEE77B
:100DF00010B010BD7047FEE70907090E002804DB9C
:100E000000F1E02080F80014704700F00F0000F1BE
:100E1000E02080F8141D704710B50446C0B2FFF7FB
:100E20001DFF204610BD00001FB5FFF797FBFFF721
:100E3000B9FFFFF743FFFFF78BFE12A0D0E90010C8
:100E4000CDE9001011A0D0E90010CDE90210002179
:100E50006846FFF721FF012102A8FFF71DFF0021CF
:100E60000846FFF76EFE0D210AA0FFF7A7FE0DA0B2
:100E7000FFF7AAF90020FFF7F1FE0120FFF7EEFED1
:100E8000FEE70000000A1F1F1F0E0400000A0000FA
:100E9000110E00005472616E2056616E2048757903
:100EA0000A0D000032313134363535320000000091
:100EB000000000000000000001020304060708090A
:100EC000E00E0008000000201400000028010008C7
:100ED000F40E00081400002064060000440100081D
:100EE00000000000010000001000000000000000F1
:040EF0000024F400E6
:04000005080000ED02
:00000001FF
