:020000040800F2
:10000000C806002089010008E5100008790C0008E6
:10001000E11000082D030008F9100008000000009E
:10002000000000000000000000000000ED100008CB
:100030003103000800000000E9100008F11000087A
:10004000A3010008A3010008A3010008A301000800
:10005000A3010008A3010008A3010008A3010008F0
:10006000A3010008A3010008A3010008A3010008E0
:10007000A3010008A3010008A3010008A3010008D0
:10008000A3010008A3010008A3010008A3010008C0
:10009000A3010008A3010008A3010008A3010008B0
:1000A000A3010008A3010008A3010008A3010008A0
:1000B000A3010008A3010008A3010008A301000890
:1000C000A3010008A3010008A3010008A301000880
:1000D000A3010008A3010008A3010008A301000870
:1000E000A3010008A3010008A301000800F002F822
:1000F00000F03AF80AA090E8000C82448344AAF188
:100100000107DA4501D100F02FF8AFF2090EBAE885
:100110000F0013F0010F18BFFB1A43F0010318473B
:10012000D8110000F8110000103A24BF78C878C137
:10013000FAD8520724BF30C830C144BF04680C60ED
:10014000704700000023002400250026103A28BF35
:1001500078C1FBD8520728BF30C148BF0B60704739
:100160001FB51FBD10B510BD00F092F81146FFF786
:10017000F7FF00F0CBFF00F0C4F803B4FFF7F2FF85
:1001800003BC00F0CBF8000009488047094800474D
:10019000FEE7FEE7FEE7FEE7FEE7FEE7FEE7FEE737
:1001A000FEE7FEE704480549054A064B7047000094
:1001B000F5100008ED000008C8000020C806002067
:1001C000C8020020C80200200FB4044910B503AAD9
:1001D000029800F02FF810BC5DF814FB70000020AE
:1001E0004FF0000200B5134694469646203922BFD0
:1001F000A0E80C50A0E80C50B1F12001BFF4F7AF1B
:10020000090728BFA0E80C5048BF0CC05DF804EBFC
:10021000890028BF40F8042B08BF704748BF20F86A
:10022000022B11F0804F18BF00F8012B7047704768
:1002300070477047074B70B50D467B4400F011F8CE
:100240000446284600F020F810B14FF0FF3070BD92
:10025000204670BDBF0E000001694A1C026108788B
:10026000704700B58FB0CDE90131002105910549F6
:100270007944CDE903101146684600F02EF80FB01E
:1002800000BD0000E5FFFFFF007B00F0800070472D
:10029000754600F03FF8AE4605006946534620F02B
:1002A0000700854618B020B5FFF77CFFBDE8204069
:1002B0004FF000064FF000074FF000084FF0000B22
:1002C000AC46ACE8C009ACE8C009ACE8C009ACE891
:1002D000C00921F007018D4670472DE9F04106461F
:1002E0000024D6E90170F5688046304603E04146B7
:1002F000B847641C3046A8470028F8D12046BDE81E
:10030000F08110B50446AFF300802046BDE81040F0
:10031000FFF733BF00487047100000200149182044
:10032000ABBEFEE72600020070470000FEE70000BB
:1003300070470000B0B5044600F024F9054640F2CD
:100340000000C2F200000078611C18BF044400BF26
:1003500000F018F9401BA042FAD3B0BD2DE9F04FD0
:1003600082B00E68002E00F0038140F20C4C41F286
:1003700000424FF6FF7EC4F2010CC4F201020427D2
:1003800000240123C1F2100E4FF0000A4FF00009C3
:10039000904208BF0327009745E000BF012704F003
:1003A0000C030F229A402BEA020207FA03F34FEAEA
:1003B0009A051A4346F82520D1F804B040F20045CA
:1003C000C4F201055FEACB322A6854BF22EA080270
:1003D00042EA08022A606A685FEA8B3354BF22EA65
:1003E000080242EA08026A605FEACB23AA6854BFA7
:1003F00022EA080242EA08025FEA8B23AA60DCF8DC
:1004000000204FF0010354BF22EA080242EA08022A
:10041000CCF800200E680AF1010A36FA0AF204F15B
:10042000040400F0A58003FA0AF816EA080FF1D0D8
:100430004E68764512DC122E56D8DFE806F0350BF2
:100440004549555555555555555555555555554D80
:10045000510000BFD1F80C9046E000BF4FF6FF728C
:10046000C1F2210296420FDC0022C1F21102964233
:100470001AD00022C1F21202964215D00022C1F217
:100480002102964210D02FE00022C1F222029642B1
:100490000AD00022C1F23102964205D00022C1F2F8
:1004A0003202964220D100BF8A684AB1012A14BFA5
:1004B000C0F81480C0F810804FF0080914E000BFA5
:1004C0004FF0040910E000BFCA6802F108090BE010
:1004D0004FF0000908E000BFCA6802F1040903E018
:1004E000CA6802F10C0900BF22460646BAF1080F9D
:1004F00024BF203A043637680F25954027EA0505C2
:1005000009FA02F22A433260CA79D2067FF582AF35
:1005100041F21803C4F202031A6842F001021A60A1
:100520001A6802F001020192019A40F20042C4F2FC
:100530000102A2F57E762AF0030256F802B040F6D8
:100540000002C4F20102904210D040F60042C4F210
:10055000010290423FF422AF41F20002C4F20102D4
:10056000009F904208BF022719E700BF002716E747
:1005700002B0BDE8F08F0000002A08BF0904016145
:100580007047000040F2C400C2F2000000687047EB
:1005900040F2000040F2C401C2F20000C2F20001C9
:1005A00000780A68104408607047000080B542F285
:1005B0000000C4F20200016841F010010160032054
:1005C00000F07AF80F2000F005F800F027F800207E
:1005D00080BD000070B540F20006C2F2000640F295
:1005E00008013278C2F200014FF47A730968B3FB54
:1005F000F2F20446B1FBF2F1084600F027FB0F2CA3
:100600004FF0010508D838B94FF0FF3021460022DD
:10061000002500F025F87460284670BD82B041F2D4
:100620001800C4F202000168022241F001010160D9
:10063000016801F0010101910199416841F0805187
:100640004160406800F08050009000980420C4F29F
:100650000100016862F31A61016002B07047000096
:1006600010B54EF60C5CCEF2000CDCF80030C3F393
:10067000022E8EF00704042C28BF0424BEF10303CD
:100680004FF0FF3E0EFA04F438BF0023A143994017
:100690000EFA03F39A43114300F00F0200F1604396
:1006A0000901043A03F564436244002848BF02F19B
:1006B0000C03197010BD00004EF60C51CEF2000173
:1006C0000A684FF6FF031A4060F30A2242F0806086
:1006D00040F0FD70086070472DE9F04381B00028BC
:1006E00000F0858042F20008C4F202080446D8F8FF
:1006F00000000D4600F0070088420CD2D8F8000038
:1007000020F007002843C8F80000D8F8000000F0E7
:100710000700A8426BD1206841F204098107C4F2A6
:10072000020917D5410705D5D9F8001041F4E06159
:10073000C9F80010010705D5D9F8001041F460513F
:10074000C9F80010D9F80010A26821F0F001114397
:10075000C9F80010C00741D1D8F8000000F0070028
:10076000A8420CD9D8F8000020F007002843C8F8A8
:100770000000D8F8000000F00700A84237D1206838
:10078000410707D5D9F80010E26821F4E061114370
:10079000C9F80010000708D5D9F80000216920F435
:1007A000605040EAC100C9F80000D9F8002002F00A
:1007B0000C00082841F20020C0F27A0050D141F22A
:1007C000E623C2F38341C0F60003595CD2033BD455
:1007D00040F60010C0F23D00484341E06068022846
:1007E0000AD001282AD159F8041C890308D4012011
:1007F00001B0BDE8F08300BF59F8041C8901F6D5AB
:10080000D9F8001021F003010843C9F80000FFF7F0
:10081000B9FE064641F28837D9F80000616800F059
:100820000C00B0EB810F97D0FFF7ACFE801BB842F5
:10083000F2D9032001B0BDE8F08300BF59F8041CD1
:100840008907D4D5DCE700BFD9F8002041F2D423D2
:10085000C2F34042C0F600039A5C4843B0FBF2F09A
:10086000D9F8001041F2D622C1F30311C0F60002FC
:10087000515C40F2080220FA01F140F20400C2F299
:1008800000000068C2F200021160FFF7A3FE002022
:1008900001B0BDE8F08300002DE9F04182B00028EE
:1008A00068D00446007841F20006C007C4F2020690
:1008B00025D0706800F00C0004281BD0706800F090
:1008C0000C00082802D17068C00313D460680028A7
:1008D00000F06881B0F5A02F00F07C81B0F5803F7A
:1008E00000F07C81306820F480303060306820F483
:1008F000802076E13068800301D56068D0B320782D
:10090000800718D5706810F00C0F07D0706800F0E1
:100910000C0008286ED17068C0036BD43068800763
:1009200002D52069012825D13068616920F0F800DE
:1009300040EAC1003060207800071FD420784007CB
:1009400032D4E56995B1706800F00C00082840F0D9
:100950008F80012D0ED07068216A00F480328A42A7
:1009600008D1616A00F47010884203D1002002B0FF
:10097000BDE8F081012002B0BDE8F081A069002847
:1009800062D00020C4F242200121C0F88014FFF799
:10099000F9FD0546706A800700F18C80FFF7F2FDD3
:1009A000401B0228F6D92AE1F06910F0805808D1DE
:1009B000F06940F08050F061F06900F080500090E4
:1009C000009847F20007C4F200073868C00529D430
:1009D000386840F480703860FFF7D4FD054600BFEA
:1009E0003868C0051ED4FFF7CDFD401B6428F7D939
:1009F00005E100BF2069002840F20000C4F2422057
:100A000000F0828001210160FFF7BCFD054600BFB8
:100A1000306880073FF588AFFFF7B4FD401B022820
:100A2000F6D9ECE0E068002800F08080052800F0AE
:100A30009780012800F09880306A20F00100306231
:100A4000306A20F0040092E00020C4F2422000212D
:100A5000C0F88014FFF796FD054600BF706A800756
:100A60007FF56CAFFFF78EFD401B0228F6D9C6E07C
:100A70000027C4F2422700203866FFF783FD022DCD
:100A800005460BD13068800140F1BE80FFF77AFD4A
:100A9000401B02284FF00300F4D968E7306880015A
:100AA0007FF564AFFFF76EFD401B02284FF0030097
:100AB000F4D95CE740F20800C2F20000006844F696
:100AC000D351C1F26201A0FB0101480A019000BFAD
:100AD00000BF0198411E002801913FF42FAF00BFD5
:100AE0000198411E002801913FF428AF00BF0198F2
:100AF000411E002801913FF421AF00BF0198411E23
:100B000000280191E4D119E700210160FFF73AFDC7
:100B1000054600BF306880077FF50DAFFFF732FD57
:100B2000401B02284FF00300F4D920E7306A20F080
:100B300001003062306A20F004003062FFF722FDCD
:100B4000054641F2883700BF306A800720D5FFF79D
:100B500019FD401BB8424FF00300F5D907E700BF6D
:100B6000306A40F004003062306A40F001003062C8
:100B7000FFF708FD054641F2883700BF306A80075D
:100B800006D4FFF7FFFC401BB842F7D937E000BF9F
:100B9000B8F1000F7FF4D5AEF06920F08050F0611D
:100BA000CFE600BF306820F480303060306820F439
:100BB00080203060FFF7E6FC054600BF3068800308
:100BC0007FF59DAEFFF7DEFC401B64284FF003006D
:100BD000F4D9CCE6306840F480203060306840F4CE
:100BE00080303060FFF7CEFC054600BF30688003E0
:100BF0003FF585AEFFF7C6FC401B6428F6D90320FD
:100C000002B0BDE8F08100BF206AB0F5803F05D199
:100C10007168A26821F40031114371607168626AE1
:100C200021F4741111430843706001203866FFF706
:100C3000A9FC0446306880013FF598AEFFF7A2FC9E
:100C4000001B02284FF00300F4D990E6411E00205B
:100C5000B0EB116F1CBF012070474EF21002CEF2B4
:100C6000000251604EF62351CEF20001F0230B70CA
:100C70000721906011607047FEE7000010B500EB9F
:100C80008110A0F1800440F60040C4F201004FF44E
:100C900080710022FFF770FCE0B2BDE8104000F068
:100CA000EBB8000010B50F20FFF744FB40F60044FE
:100CB000C4F2010420464FF480710022FFF75CFC6F
:100CC00020464FF400710022FFF756FC2046802199
:100CD0000022FFF751FC204640210022FFF74CFC88
:100CE000204620212022FFF747FC20461021102219
:100CF000FFF742FC20464FF480610122FFF73CFCE5
:100D000020464FF480610022FFF736FC0520FFF7F4
:100D100011FB20464FF400710022FFF72DFC204606
:100D200080210022FFF728FC204640210022FFF707
:100D300023FC204620212022FFF71EFC2046102104
:100D40001022FFF719FC20464FF480610122FFF7C3
:100D500013FC20464FF480610022FFF70DFC0120B8
:100D6000FFF7E8FA20464FF400710022FFF704FC79
:100D7000204680210022FFF7FFFB20464021002271
:100D8000FFF7FAFB204620212022FFF7F5FB204643
:100D900010211022FFF7F0FB20464FF48061012262
:100DA000FFF7EAFB20464FF480610022FFF7E4FBE7
:100DB0000120FFF7BFFA20464FF400710022FFF731
:100DC000DBFB204680210022FFF7D6FB2046402196
:100DD0000022FFF7D1FB204620212022FFF7CCFB89
:100DE000204610210022FFF7C7FB20464FF4806108
:100DF0000122FFF7C1FB20464FF480610022FFF77C
:100E0000BBFB0120FFF796FA282000F035F80820F8
:100E100000F032F8012000F02FF8062000F02CF846
:100E20000D20BDE8104000F027B800002DE9F0418A
:100E300006788E4208BFBDE8F08140F600480446BF
:100E40000D460027C4F20108F0B2B0F10A0218BF43
:100E500001220A2840464FF4807108BF6FF03F0618
:100E6000FFF78AFBF0B200F007F8781CC7B2E65D26
:100E7000AE42E9D1BDE8F0812DE9F04381B040F602
:100E80000044C4F20104054620464FF400710022DC
:100E9000FFF772FB05F08002204680214FF08008AA
:100EA000FFF76AFB05F04002204640214FF0400961
:100EB000FFF762FB05F02002204620212026FFF7E5
:100EC0005BFB05F01002204610211027FFF754FBB2
:100ED00020464FF480610122FFF74EFB20464FF47D
:100EE00080610022FFF748FB20464FF4007100228A
:100EF000FFF742FB08EA051220468021FFF73CFB82
:100F000009EA051220464021FFF736FB06EA0512E2
:100F100020462021FFF730FB07EA0512204610216A
:100F2000FFF72AFB20464FF480610122FFF724FBE4
:100F300020464FF480610022FFF71EFB012001B024
:100F4000BDE8F043FFF7F6B910B5044640F600409F
:100F5000C4F201004FF480710122FFF70DFB20461F
:100F6000BDE81040FFF788BFF0B581B040F60045FE
:100F700004464020C4F201050E4600EBC107284696
:100F80004FF480710022FFF7F7FAF8B2FFF774FF11
:100F9000277828464FF480710122FFF7EDFA384692
:100FA000FFF76AFF412000EBC60728464FF4807127
:100FB0000022FFF7E1FAF8B2FFF75EFF67782846F4
:100FC0004FF480710122FFF7D7FA3846FFF754FF3C
:100FD000422000EBC60728464FF480710022FFF73D
:100FE000CBFAF8B2FFF748FFA77828464FF4807194
:100FF0000122FFF7C1FA3846FFF73EFF432000EB1E
:10100000C60728464FF480710022FFF7B5FAF8B200
:10101000FFF732FFE77828464FF480710122FFF78F
:10102000ABFA3846FFF728FF442000EBC6072846F6
:101030004FF480710022FFF79FFAF8B2FFF71CFF10
:10104000277928464FF480710122FFF795FA384638
:10105000FFF712FF452000EBC60728464FF48071CA
:101060000022FFF789FAF8B2FFF706FF67792846F2
:101070004FF480710122FFF77FFA3846FFF7FCFE3C
:10108000462000EBC60728464FF480710022FFF788
:1010900073FAF8B2FFF7F0FEA77928464FF4807193
:1010A0000122FFF769FA3846FFF7E6FE472000EB1A
:1010B000C60628464FF480710022FFF75DFAF0B2B1
:1010C000FFF7DAFEE47928464FF480710122FFF73A
:1010D00053FA204601B0BDE8F040FFF7CDBE000056
:1010E000FEE70000FEE700007047000070470000C8
:1010F000FFF74EBA70470000FEE7000010B5044647
:10110000C0B2FFF721FF204610BD000092B0FFF7EC
:101110004DFA08AC201D2421FFF762F80220089048
:1011200001200C9010200D90002520460F95FFF710
:10113000B3FB28B1EFF3108072B600BFFEE700BF2B
:101140000F20CDE9020502A80021CDE9045506953E
:10115000FFF7C2FA20B1EFF3108072B6FEE700BFCE
:10116000002641F21800CDE90A66C4F202000168C7
:1011700040F6004441F0100101600168C4F201042E
:1011800001F01001029102990168002241F0200152
:101190000160016840F2FF7801F02001029102999C
:1011A000016841F004010160016801F0040102914D
:1011B0000299016841F008010160006840F2FF7186
:1011C00000F00800029002982046FFF7D5F94FF48E
:1011D000604008AD0890032704F580602946099710
:1011E000FFF7BCF804F500602946CDE90877FFF762
:1011F000B5F849F6FF70CDE90807A4F580602946E7
:10120000FFF7ACF80120CDE9090602200B9020463B
:101210002946CDF82080FFF7A1F84FF47840CDE9BA
:10122000080720462946FFF799F80420C4F2010078
:10123000016841F0E06141F400410160FFF732FDD7
:1012400040F61F60C0F20400099040F60020C1F68D
:101250001F70089040F6116003904FF420600290D8
:1012600040F60910C0F20E00019040F60E10C1F6D3
:101270000950009008A80021FFF776FE02A801217E
:10128000FFF772FE68460221FFF76EFE0020002184
:10129000FFF7F4FC07A00D21FFF7C8FD0AA0FEF739
:1012A00093FF0020FFF750FE0120FFF74DFE00BF27
:1012B000FEE700BF02482053504B542054502E48A4
:1012C000434D0A0D000000004302542032303233F7
:1012D0000000000001020000000000000000010208
:1012E00003040607080902030405060708090A0B98
:1012F0000C0D0E0F10100000181300080000002045
:101300001000000028010008281300081000002029
:10131000B8060000440100080100000010000000B1
:081320000024F40000000000AD
:04000005080000ED02
:00000001FF
